{"abi":[{"type":"constructor","inputs":[],"stateMutability":"payable"},{"type":"function","name":"allowance","inputs":[{"name":"owner","type":"address","internalType":"address"},{"name":"spender","type":"address","internalType":"address"}],"outputs":[{"name":"","type":"uint256","internalType":"uint256"}],"stateMutability":"view"},{"type":"function","name":"approve","inputs":[{"name":"spender","type":"address","internalType":"address"},{"name":"value","type":"uint256","internalType":"uint256"}],"outputs":[{"name":"","type":"bool","internalType":"bool"}],"stateMutability":"nonpayable"},{"type":"function","name":"balanceOf","inputs":[{"name":"account","type":"address","internalType":"address"}],"outputs":[{"name":"","type":"uint256","internalType":"uint256"}],"stateMutability":"view"},{"type":"function","name":"decimals","inputs":[],"outputs":[{"name":"","type":"uint8","internalType":"uint8"}],"stateMutability":"view"},{"type":"function","name":"decrement","inputs":[],"outputs":[],"stateMutability":"nonpayable"},{"type":"function","name":"increment","inputs":[],"outputs":[],"stateMutability":"nonpayable"},{"type":"function","name":"name","inputs":[],"outputs":[{"name":"","type":"string","internalType":"string"}],"stateMutability":"view"},{"type":"function","name":"number","inputs":[],"outputs":[{"name":"","type":"uint256","internalType":"uint256"}],"stateMutability":"view"},{"type":"function","name":"owner","inputs":[],"outputs":[{"name":"","type":"address","internalType":"address"}],"stateMutability":"view"},{"type":"function","name":"renounceOwnership","inputs":[],"outputs":[],"stateMutability":"nonpayable"},{"type":"function","name":"resetNumber","inputs":[],"outputs":[],"stateMutability":"nonpayable"},{"type":"function","name":"symbol","inputs":[],"outputs":[{"name":"","type":"string","internalType":"string"}],"stateMutability":"view"},{"type":"function","name":"totalSupply","inputs":[],"outputs":[{"name":"","type":"uint256","internalType":"uint256"}],"stateMutability":"view"},{"type":"function","name":"transfer","inputs":[{"name":"to","type":"address","internalType":"address"},{"name":"value","type":"uint256","internalType":"uint256"}],"outputs":[{"name":"","type":"bool","internalType":"bool"}],"stateMutability":"nonpayable"},{"type":"function","name":"transferFrom","inputs":[{"name":"from","type":"address","internalType":"address"},{"name":"to","type":"address","internalType":"address"},{"name":"value","type":"uint256","internalType":"uint256"}],"outputs":[{"name":"","type":"bool","internalType":"bool"}],"stateMutability":"nonpayable"},{"type":"function","name":"transferOwnership","inputs":[{"name":"newOwner","type":"address","internalType":"address"}],"outputs":[],"stateMutability":"nonpayable"},{"type":"event","name":"Approval","inputs":[{"name":"owner","type":"address","indexed":true,"internalType":"address"},{"name":"spender","type":"address","indexed":true,"internalType":"address"},{"name":"value","type":"uint256","indexed":false,"internalType":"uint256"}],"anonymous":false},{"type":"event","name":"OwnershipTransferred","inputs":[{"name":"previousOwner","type":"address","indexed":true,"internalType":"address"},{"name":"newOwner","type":"address","indexed":true,"internalType":"address"}],"anonymous":false},{"type":"event","name":"Transfer","inputs":[{"name":"from","type":"address","indexed":true,"internalType":"address"},{"name":"to","type":"address","indexed":true,"internalType":"address"},{"name":"value","type":"uint256","indexed":false,"internalType":"uint256"}],"anonymous":false},{"type":"event","name":"numberChanged","inputs":[{"name":"newNumber","type":"uint256","indexed":false,"internalType":"uint256"}],"anonymous":false},{"type":"event","name":"numberReset","inputs":[{"name":"","type":"bool","indexed":false,"internalType":"bool"}],"anonymous":false},{"type":"error","name":"ERC20InsufficientAllowance","inputs":[{"name":"spender","type":"address","internalType":"address"},{"name":"allowance","type":"uint256","internalType":"uint256"},{"name":"needed","type":"uint256","internalType":"uint256"}]},{"type":"error","name":"ERC20InsufficientBalance","inputs":[{"name":"sender","type":"address","internalType":"address"},{"name":"balance","type":"uint256","internalType":"uint256"},{"name":"needed","type":"uint256","internalType":"uint256"}]},{"type":"error","name":"ERC20InvalidApprover","inputs":[{"name":"approver","type":"address","internalType":"address"}]},{"type":"error","name":"ERC20InvalidReceiver","inputs":[{"name":"receiver","type":"address","internalType":"address"}]},{"type":"error","name":"ERC20InvalidSender","inputs":[{"name":"sender","type":"address","internalType":"address"}]},{"type":"error","name":"ERC20InvalidSpender","inputs":[{"name":"spender","type":"address","internalType":"address"}]},{"type":"error","name":"OwnableInvalidOwner","inputs":[{"name":"owner","type":"address","internalType":"address"}]},{"type":"error","name":"OwnableUnauthorizedAccount","inputs":[{"name":"account","type":"address","internalType":"address"}]}],"bytecode":{"object":"0x60066080908152651b5a591dda5d60d21b60a052610100604052600360c08181526213525160ea1b60e052339291610037838261017a565b506004610044828261017a565b5050506001600160a01b03811661007557604051631e4fbdf760e01b81526000600482015260240160405180910390fd5b61007e81610089565b506064600655610238565b600580546001600160a01b038381166001600160a01b0319831681179093556040519116919082907f8be0079c531659141344cd1fd0a4f28419497f9722a3daafe3b4186f6b6457e090600090a35050565b634e487b7160e01b600052604160045260246000fd5b600181811c9082168061010557607f821691505b60208210810361012557634e487b7160e01b600052602260045260246000fd5b50919050565b601f82111561017557806000526020600020601f840160051c810160208510156101525750805b601f840160051c820191505b81811015610172576000815560010161015e565b50505b505050565b81516001600160401b03811115610193576101936100db565b6101a7816101a184546100f1565b8461012b565b6020601f8211600181146101db57600083156101c35750848201515b600019600385901b1c1916600184901b178455610172565b600084815260208120601f198516915b8281101561020b57878501518255602094850194600190920191016101eb565b50848210156102295786840151600019600387901b60f8161c191681555b50505050600190811b01905550565b610a2f806102476000396000f3fe608060405234801561001057600080fd5b50600436106101005760003560e01c8063715018a611610097578063a9059cbb11610066578063a9059cbb146101e9578063d09de08a146101fc578063dd62ed3e14610204578063f2fde38b1461023d57600080fd5b8063715018a6146101b55780638381f58a146101bd5780638da5cb5b146101c657806395d89b41146101e157600080fd5b80632baeceb7116100d35780632baeceb71461016b578063313ce567146101755780635035df811461018457806370a082311461018c57600080fd5b806306fdde0314610105578063095ea7b31461012357806318160ddd1461014657806323b872dd14610158575b600080fd5b61010d610250565b60405161011a9190610840565b60405180910390f35b6101366101313660046108aa565b6102e2565b604051901515815260200161011a565b6002545b60405190815260200161011a565b6101366101663660046108d4565b6102fc565b610173610320565b005b6040516012815260200161011a565b6101736103dc565b61014a61019a366004610911565b6001600160a01b031660009081526020819052604090205490565b61017361041a565b61014a60065481565b6005546040516001600160a01b03909116815260200161011a565b61010d61042e565b6101366101f73660046108aa565b61043d565b61017361044b565b61014a610212366004610933565b6001600160a01b03918216600090815260016020908152604080832093909416825291909152205490565b61017361024b366004610911565b61045b565b60606003805461025f90610966565b80601f016020809104026020016040519081016040528092919081815260200182805461028b90610966565b80156102d85780601f106102ad576101008083540402835291602001916102d8565b820191906000526020600020905b8154815290600101906020018083116102bb57829003601f168201915b5050505050905090565b6000336102f0818585610499565b60019150505b92915050565b60003361030a8582856104ab565b610315858585610529565b506001949350505050565b6000600654116103775760405162461bcd60e51b815260206004820152601860248201527f43616e2064656372656d656e742062656c6f77207a65726f000000000000000060448201526064015b60405180910390fd5b60068054906000610387836109b6565b919050555061039f3368056bc75e2d63100000610588565b7fe56e9ddd265506f6acd5a545e1ec7ba84750f6eabf282eaa58fa04333c003c5f6006546040516103d291815260200190565b60405180910390a1565b6103e46105c2565b6000600655604051600181527fc141662607c374076d02446b1dc9410b011f86bbe45a490eda56f233279e94c1906020016103d2565b6104226105c2565b61042c60006105ef565b565b60606004805461025f90610966565b6000336102f0818585610529565b60068054906000610387836109cd565b6104636105c2565b6001600160a01b03811661048d57604051631e4fbdf760e01b81526000600482015260240161036e565b610496816105ef565b50565b6104a68383836001610641565b505050565b6001600160a01b038381166000908152600160209081526040808320938616835292905220546000198114610523578181101561051457604051637dc7a0d960e11b81526001600160a01b0384166004820152602481018290526044810183905260640161036e565b61052384848484036000610641565b50505050565b6001600160a01b03831661055357604051634b637e8f60e11b81526000600482015260240161036e565b6001600160a01b03821661057d5760405163ec442f0560e01b81526000600482015260240161036e565b6104a6838383610716565b6001600160a01b0382166105b25760405163ec442f0560e01b81526000600482015260240161036e565b6105be60008383610716565b5050565b6005546001600160a01b0316331461042c5760405163118cdaa760e01b815233600482015260240161036e565b600580546001600160a01b038381166001600160a01b0319831681179093556040519116919082907f8be0079c531659141344cd1fd0a4f28419497f9722a3daafe3b4186f6b6457e090600090a35050565b6001600160a01b03841661066b5760405163e602df0560e01b81526000600482015260240161036e565b6001600160a01b03831661069557604051634a1406b160e11b81526000600482015260240161036e565b6001600160a01b038085166000908152600160209081526040808320938716835292905220829055801561052357826001600160a01b0316846001600160a01b03167f8c5be1e5ebec7d5bd14f71427d1e84f3dd0314c0f7b2291e5b200ac8c7c3b9258460405161070891815260200190565b60405180910390a350505050565b6001600160a01b03831661074157806002600082825461073691906109e6565b909155506107b39050565b6001600160a01b038316600090815260208190526040902054818110156107945760405163391434e360e21b81526001600160a01b0385166004820152602481018290526044810183905260640161036e565b6001600160a01b03841660009081526020819052604090209082900390555b6001600160a01b0382166107cf576002805482900390556107ee565b6001600160a01b03821660009081526020819052604090208054820190555b816001600160a01b0316836001600160a01b03167fddf252ad1be2c89b69c2b068fc378daa952ba7f163c4a11628f55a4df523b3ef8360405161083391815260200190565b60405180910390a3505050565b602081526000825180602084015260005b8181101561086e5760208186018101516040868401015201610851565b506000604082850101526040601f19601f83011684010191505092915050565b80356001600160a01b03811681146108a557600080fd5b919050565b600080604083850312156108bd57600080fd5b6108c68361088e565b946020939093013593505050565b6000806000606084860312156108e957600080fd5b6108f28461088e565b92506109006020850161088e565b929592945050506040919091013590565b60006020828403121561092357600080fd5b61092c8261088e565b9392505050565b6000806040838503121561094657600080fd5b61094f8361088e565b915061095d6020840161088e565b90509250929050565b600181811c9082168061097a57607f821691505b60208210810361099a57634e487b7160e01b600052602260045260246000fd5b50919050565b634e487b7160e01b600052601160045260246000fd5b6000816109c5576109c56109a0565b506000190190565b6000600182016109df576109df6109a0565b5060010190565b808201808211156102f6576102f66109a056fea26469706673582212207f4c2a5a132c6fed5670ebe31cfd73682fc096f103224b71ef27bcc6a0cdd5d564736f6c634300081c0033","linkReferences":{}},"methodIdentifiers":{"allowance(address,address)":"dd62ed3e","approve(address,uint256)":"095ea7b3","balanceOf(address)":"70a08231","decimals()":"313ce567","decrement()":"2baeceb7","increment()":"d09de08a","name()":"06fdde03","number()":"8381f58a","owner()":"8da5cb5b","renounceOwnership()":"715018a6","resetNumber()":"5035df81","symbol()":"95d89b41","totalSupply()":"18160ddd","transfer(address,uint256)":"a9059cbb","transferFrom(address,address,uint256)":"23b872dd","transferOwnership(address)":"f2fde38b"},"id":6}